:10800000B0E60020E19F00000B0E0100CD9F0000B4
:10801000CD9F0000CD9F0000CD9F0000CD9F0000B0
:10802000000000000000000000000000A5A100000A
:10803000CD9F0000000000005DA10000CD9F00006A
:1080400031A3000031A3000031A3000031A30000E0
:1080500031A3000031A3000031A3000031A30000D0
:1080600031A3000031A3000031A3000031A30000C0
:1080700031A3000031A3000031A3000031A30000B0
:1080800031A3000031A3000031A3000031A30000A0
:1080900031A3000031A3000031A3000031A3000090
:1080A00031A3000031A3000031A3000031A3000080
:1080B00031A3000031A3000031A3000031A3000070
:1080C00031A3000031A3000031A3000031A3000060
:1080D00031A3000031A3000031A3000031A3000050
:1080E00031A3000031A3000031A3000031A3000040
:1080F00031A3000031A3000031A3000031A3000030
:1081000031A3000031A3000031A3000031A300001F
:1081100031A3000031A3000031A3000031A300000F
:1081200031A3000031A3000031A3000031A30000FF
:1081300031A3000031A3000031A3000031A30000EF
:0481400031A3000067
:1081440053B94AB9002908BF00281CBF4FF0FF31BA
:108154004FF0FF3000F00CB8ADF1080C6DE904CE1F
:1081640000F008F8DDF804E0DDE9022304B070470C
:10817400704700BF2DE9F04786468C460846089EA6
:10818400154674461946002B40F0C1808542B2FA68
:1081940082F245D94AB1C2F1200300FA02FC9540AB
:1081A40094402EFA03F343EA0C0C4FEA154EA8B29E
:1081B400230CBCFBFEF80EFB18CC08FB00F943EAC9
:1081C4000C43994528D9EB1808F1FF3704D2994597
:1081D40002D9A8F102072B44A3EB0903A4B2B3FB11
:1081E400FEFC0EFB1C330CFB00F044EA0344A042EB
:1081F40014D92C190CF1FF3304D2A04202D9ACF1EA
:1082040002032C44241A43EA07401EB1D44000233D
:1082140034607360BDE8F0874746DDE76346F1E705
:1082240092BB431B01214FEA154EAFB2200CB3FBA6
:10823400FEFC0EFB1C330CFB07F840EA0343984595
:1082440061D9EB180CF1FF3004D2984502D9ACF196
:1082540002002B44A3EB0803A4B2B3FBFEFC0EFB09
:108264001C330CFB07F744EA0344A7424DD92C19ED
:108274000CF1FF3304D2A74202D9ACF102032C441F
:10828400E41B43EA0040C0E7C2F120039540944058
:1082940020FA03F12EFA03F34FEA154E9040AFB2E1
:1082A4000343B1FBFEFC0EFB1C10190C0CFB07F87E
:1082B40041EA0041884522D969180CF1FF3004D203
:1082C400884502D9ACF102002944A1EB08019BB214
:1082D400B1FBFEFC0EFB1C110CFB07F743EA014348
:1082E4009F420ED9EB180CF1FF3104D29F4202D900
:1082F400ACF102012B44DB1B41EA004193E76046E9
:10830400E3E76146F7E76046A4E76346B8E78342DC
:1083140006D916B9002108467CE7C6E900E0F9E76A
:10832400B3FA83F78FB9834201D3724508D8BEEB01
:10833400020460EB030301209C461EB9002169E797
:108344003846FAE7C6E9004CF8E7C7F1200CBB4011
:108354000EFA07F522FA0CF42EFA0CF1BA401C437B
:1083640020FA0CF3B8404FEA144901431FFA84FE83
:10837400B3FBF9F809FB18300B0C08FB0EFA43EABF
:1083840000439A4540D9E31808F1FF3004D29A45D6
:1083940002D9A8F102002344A3EB0A0389B2B3FB78
:1083A400F9F809FB183308FB0EFE41EA03418E4538
:1083B4002CD9611808F1FF3304D28E4502D9A8F1F3
:1083C4000203214443EA0040A1EB0E01A0FB029802
:1083D4004145CE46434602D306D14D4504D2013829
:1083E400B9EB020E68EB0403002EA7D0B5EB0E0226
:1083F40061EB030101FA0CFC22FA07F3F9404CEAA1
:108404000303C6E9003199E74046C5E74346D9E787
:10841400034613F8012B002AFBD1181A01387047C0
:108424002DE9F04F83B000AF514809F01CFB20B98F
:108434000121504A504808F021FC504807F017FD2C
:10844400031E04DA01214E4A4B4808F020FC484838
:1084540009F009FB20B901214A4A474808F00EFCFB
:10846400494807F004FD031E04DA0121474A424843
:1084740008F00DFC414807F014FD434807F011FDD6
:10848400434D284609F0EFFA2B680446002859D0DA
:108494006C4688B06A463F49C2E905134FF400733D
:1084A40093833D4B42F8103F00234FF4E65132488A
:1084B40000F0F6FFA5460321384A2F4808F0DEFBFA
:1084C4000024DFF8DCB0DFF8DCA04FF0000904EB97
:1084D4004408344ED84430220021504609F0CFFDE0
:1084E400B8F80030338098F80230B370AB687B6022
:1084F4009B6803BB7B6810221B685146244898473D
:10850400034620B10121284A1B4808F0C0FB40F271
:108514006760002109F1010906F04CFEB9F1100F62
:1085240006F10306D7D103230134B4FBF3F303EBC1
:108534004303E41AC9E7164898470F28DAD86FF0BE
:108544002103DFE788B06A461849C2E905134FF4EE
:1085540000739383104B42F8103F4FF4E2510346EB
:10856400054800F09DFF20460C37BD46BDE8F08F5E
:108574003C2101009A280100BC2301004024010091
:10858400B1280100D528010038240100ED2801009C
:108594007821010012290100030000012C290100A7
:1085A400832901009CD40020692901004829010085
:1085B4002DE9F04F91B0009302F004030293C2F34B
:1085C400C2030133840705460E46DDF86890039222
:1085D400059340F0BB81041D30B1072909D86FF021
:1085E4001B0011B0BDE8F08F01F00706341DC6F181
:1085F4000806009B4FF000084FF0040A591E4FF084
:10860400FF3347460193C3465346CDF810800DB15E
:10861400009A22600598002800F3E8809848009AA0
:10862400824203D397488242C0F0E080039AA4EBCD
:10863400050E92074FEA9E0000F103810F2F00F20E
:10864400B180002D00F0058107F140020DEB020C12
:10865400019A0CF8200C0CF8102C049801300490AA
:10866400E7E07A285DD84B280ED8472859D829281E
:108674002DD8252852D054D820287AD02338D0F1A8
:10868400000B4BEB000B74E04C382E2849D8DFE884
:1086940000F07048484848484848484848484B48CB
:1086A4004848484848484859484B4B595959704BD1
:1086B4006D487048184B184848827F4B48484B48CF
:1086C4007F0000204FF0000B4FF0040A38E0012235
:1086D4002A38C0B202FA00F010EA0E0F49D110F0A5
:1086E400625C2FD110EA020B43D06046013C544433
:1086F400B4FBFAF40AFB04F4002D61D0A3EB050CDF
:10870400A444B4453FF66BAF002868D1042B47D18D
:1087140059F8043B2360042304342AE0019A013A03
:1087240001924FF0000B24E011F8010C6C2834D1B5
:10873400002011F8023C83466C2BC5D14FF0080A87
:108744005346D3E709F1070929F00709073424F050
:108754000704F9E802AB35B106982044B0423FF66D
:108764003EAFC4E900AB4FF0000B08344FF0080AE9
:10877400534611F8010F002878D0BBF1000F7FF4A5
:1087840070AF2528F5D14FF0010B019B0133019304
:108794004FF0040AECE7584694E700208346A5E727
:1087A400082B02D06FF015001BE709F1070929F027
:1087B4000709F9E80223C4E9002308230834D8E7A9
:1087C40068B9042B02D109F10409A4E7082BE9D103
:1087D40009F1070929F0070909F10809EDE7059AE4
:1087E400013A059259F8042B009210E7039A900776
:1087F40020D54FF0010CA4EB050E4FEA9E00BEF508
:10880400007FCFD20F2FCDD8F5B107F140020DEB89
:10881400020E019AC0B20EF8200C0EF8102CBCF116
:10882400000F3FF41AAF60F07F000EF8200C08F13F
:1088340001080137C5F108024FF6DA7E04340692C6
:1088440097E74FF0000CDAE7BCF1000F01D00136D6
:10885400EFE7029802360028EBD10098CDE9063103
:10886400FFF7D6FDDDE906310644E2E7631BB3F505
:10887400806F97D245B9A6F10804E018B1E600BFAD
:10888400B820010064360100029A9B0828602B700E
:108894009DF81030C2B1EB7085F80280B8F1000F7A
:1088A40005D0002208A8C5F1010C97420ED14FF063
:1088B400000AC5F101030DF1200901930DF1300BFC
:1088C400574512D1601B8CE66B70E5E710F8013B4D
:1088D400190608D504EB0C0EB64503F07F033FF6EA
:1088E4007EAE04F8013B0132DFE7B8F1000F03D09C
:1088F40099F90020002A17DB029BD3B11AF80B2048
:1089040004F8012B0022019B98182044B0423FF642
:1089140066AE99F80000009904F8010B2046039212
:1089240009F0A0FB039A14440AF1010A09F10109B0
:10893400C6E799F8002055F822300093029B00986E
:1089440045F82230FFF764FD421CDCE76FF00D00B0
:1089540047E600BF2DE9F04F97B000AFD7F880B0DD
:108964003B62CBF3C0030446894690F802A0FA6246
:10897400BB6141B9457800780AEB800020444D453D
:1089840017D8A0EB0409E378FB61BAF1000F02D019
:108994001BF0010F16D1FB6953BBFB6A1BB149469F
:1089A40020463A6A98474D4628465C37BD46BDE89E
:1089B400F08F461C3046FFF72BFD0130304409F19F
:1089C4000109DCE7626823787A62FA6A99007961BE
:1089D40004EB8301002A40F001810E464FF00008A9
:1089E4004D4601EB0A094E454CD101EB0A0610E055
:1089F4001BF0020FD1D023789A007A61626804EBED
:108A040083017A62FA6A002A77D14D46904601EBD7
:108A14000A061BF0050F0CBF02230123FB62FB694E
:108A240006EB430A0BF00203BB625645BCD016F8B2
:108A3400021B16F8013C54F82390AF4B994502D31E
:108A4400AE4B994536D3BB69002B40D0786A07F00A
:108A540013FD00283BD0E9468AB06A46A84B53610F
:108A64007B6AC2E906314FF400731384A54B42F8C4
:108A7400103F00234FF41251A34800F011FD023DB2
:108A8400CD46D2E716F8013BF96254F82300FFF70C
:108A9400BFFCD7F88430F96A01304BB1D7F888307D
:108AA40098453EBFD7F8843023F8180008F1010830
:108AB400054498E7BB6923B1786A07F0DDFC002818
:108AC400C9D11BF0010F05D1FB6AED1AADE7BB6AF2
:108AD400002BAAD04846FFF79BFCD7F8843053B14B
:108AE400D7F8883098453FBFD7F88420431C22F834
:108AF400183008F10108054497E7BAF1000F73D064
:108B04001BF0040673D0D046002607F148005246F5
:108B14003B61B96209F0A6FAB96A3B6901EB0A0242
:108B2400BA62FA69F9695200FA60BA6A02EB410260
:108B34003A610BF00202BA603A69B96A8A4258D1C2
:108B440062781BF0020F18BF00217A6208BF4FEA57
:108B54005801B2181BF0010FD2B240F09F801BF0F5
:108B6400040F14BF40460020BB616270A070E17026
:108B740020463A6A7969FB6A9847051EFFF614AFE6
:108B8400BB69414623707B6A3A6A6370FB6984F867
:108B940002A0E37007F14800FB6A9847B0F10008AF
:108BA400C0F2B4807B69A9EB0A01C91AFB683A6A6E
:108BB400C91AD7E90A0398470028C0F2A9804FF0E0
:108BC400000BA84408EB000507F1380AB34567D346
:108BD40000213A6A0846FB6A9847E5E656464FF094
:108BE400000807F1380092E75646D04696E7B046AB
:108BF40094E7BA6A12F8021B12F8015CBA6254F8DC
:108C040025003D4A904202D33C4A90421ED3BA69A1
:108C140032B1786A7B6007F02FFC7B6800288BD127
:108C2400BA6802BB08F1280207F1300C08F1010010
:108C3400944407F1580208F1020852FA80F00CF843
:108C4400101C5FFA88F800F8105C75E7BA693AB14D
:108C5400786A7B6007F010FC7B6800287FF46CAFB7
:108C64001BF0010F09D006F1280207F13000711C36
:108C7400161806F8205CCEB25EE71BF0040F3FF432
:108C84005BAF08F1280207F1300008F1010102EBA3
:108C9400000808F8105C5FFA81F84DE7002063E7EC
:108CA4001BF80A3054F8239087F83730D7F884300B
:108CB400FBB133F81B8001213A6AFB6A07F13700E4
:108CC4009847002824DB0544B8F1000F06D1484634
:108CD400FFF79EFB00F101081FFA88F84146484659
:108CE4003A6AFB6A9847002812DB05440BF1010B32
:108CF4006CE7D7F88480DEE7B82001006436010011
:108D040091290100040000019423010045464BE62B
:108D1400054649E6014B1860704700BF80C5002036
:108D240080B505460E461746984606F07FFA034678
:108D340009F0B6F90446DFF81890424649F80030C5
:108D440039463046A84754F8090001F0AFF900BF8E
:108D5400080000002DE9F047058B044628079046DB
:108D640011D4022905F0070540F0CC80204607F015
:108D740017FE78B10138218B042811D8DFE800F000
:108D8400C2106D85950001290CBF45F0100545F012
:108D94002005258388F31188BFF36F8FBDE8F08722
:108DA40001F0070AAA4500F0A5800027B9463E460F
:108DB400A368002B00F0BC8041F00801218388F3F4
:108DC4001188BFF36F8FA168002900F0BA800D6885
:108DD400002900F0B680334652462046D1F804807C
:108DE400C047002D76D02B6829461D46F0E701F0D8
:108DF40007035A1F012A1BD8002221F00701062B62
:108E0400276889B2C4E9002209D13B4603E0628B9A
:108E1400013262831B68002BF9D141F00201204624
:108E2400218307F0BDFD00287AD041F0200176E0CF
:108E3400042B0AD121F0070189B22046218307F0CF
:108E4400AFFD10B141F020012183218B01F0070A0D
:108E5400AA454FD00027B946AAE7236921F00701A4
:108E640041F00601062DD3F8009021832DD1B9F1EC
:108E7400000F3FD041F00801218388F31188BFF32C
:108E84006F8F20463949C84729E021F0070123693B
:108E940041F0040189B2042DD3F804902183E6D073
:108EA40000274FF0040A3E4682E721F007012369B8
:108EB40041F0050189B2052DD3F808902183D6D05D
:108EC40000274FF0050A3E4672E700274FF0060AD6
:108ED4003E466DE72B4687E7B9F1000FD1D1EFF39A
:108EE4001188202383F31288BFF36F8F238B23F021
:108EF40008032383258BEA062ED525F0100323834C
:108F040005F007056669218B002EBFF670AF0023BC
:108F14002768C4E9003321F0070141F001012183EE
:108F2400218B4FF0000901F0070AAA457FF440AFF6
:108F3400002F9CD041F00801218388F31188BFF3EE
:108F44006F8F002FC8D03D683946334652462046BD
:108F540007F052FD2F46F4E7AB067FF51BAF25F073
:108F64002003238305F0070500E700BF290A010059
:108F74002DE9F047044607464FF00109DFF8508019
:108F840014B93846BDE8F08794FAA4F5B5FA85F526
:108F940009FA05F32E0108EB05156FEA030A24EA22
:108FA40003042B7B002BEBD058F806301B694BB91C
:108FB4004644736804222846196807EA0A0700F041
:108FC4005BFADDE7284698470028D9D1F0E700BFCF
:108FD4000424010030B5002289B00F490F4808F07D
:108FE40074FF002200230024CDE906230E230C4D38
:108FF400CDE903344FF440722846CDE90144094BCE
:109004000949009405F024FE0849284608F0EFFDBC
:10901400204609B030BD00BF3590000010CC0020C0
:1090240088C700202193000070D60020452A010043
:10903400014805F069BD00BF74C700202DE9F04761
:1090440080461F480F4607F097FD0646002830D09B
:1090540000252846BDE8F087237B6BB12368DB68D5
:109064000BB12046984723681B69D3B9636804226F
:109074002046196800F000FA013610344C45EBD351
:10908400B8F1000FE5D0002DE2D02846FFF770FFBD
:109094000546002FF7D000214FF4A47006F08AF89B
:1090A400F1E7204698470028E0D00AFA06F31D436A
:1090B400E2E705464FF0010A024CDFF80C90DDE7C9
:1090C40018CE00200424010014240100014B53F89D
:1090D400200070475C24010008B5034608462BB104
:1090E400044A136000F072FC002008BD6FF0150004
:1090F400FBE700BF84C5002010B5044C237813B9E6
:10910400034805F001FD0123237010BDCCD40020D9
:1091140074C7002010B50446094807F02DFD3CB182
:10912400084BD3E8EF1F0139C3E8E21F002AF8D146
:10913400054808F0D6FEBDE81040044805F0E4BC3C
:1091440010CE002014CE002010CC002074C70020C4
:1091540000200146034BD3E8EF0FC3E8E21F002AC7
:10916400F9D1704710CE002070B5FFF7F1FF054626
:10917400074C084EB44200D370BD63685B792BB1D1
:1091840023685B6813B12946204698471034F1E7F9
:10919400042401001424010010B5044C04492046A1
:1091A40007F09AFA034B1C6010BD00BF10C70020E3
:1091B4004824010008CE002008B50023074A4FF4D4
:1091C40000411370064A07481360074A1360FFF70B
:1091D40083FFBDE80840FFF7DFBF00BFCDD4002008
:1091E40010CE0020790B010014CE0020014600228D
:1091F4000023014807F091BA10C70020014807F086
:1092040027BB00BF10C70020024B0146186807F0B7
:1092140073BB00BF08CE0020014807F0A8BB00BF05
:1092240010C7002070B5264B1878002847D0FFF7E8
:10923400E5FF054670B1234BD3E8EF1F0139C3E8BE
:10924400E21F002AF8D1204C204EB4422DD32846E8
:10925400FFF7DAFF1E4B1F4C1B68002B19DD08F0CB
:10926400EDFD4FF47A72A0FB020302FB0131C30B44
:1092740043EA4143D4E900209B1A40F2E9324FEA21
:10928400D13161EB0001934271F1000101D3FFF789
:109294006BFFD4E9003213F57A7342F10002C4E99A
:1092A4000032BDE87040FFF7B7BF63685B7923B154
:1092B4002368294620461B6898471034C5E770BDCB
:1092C400CCD4002014CE0020042401001424010076
:1092D40010CE002008CC002070B50D4D297861B95E
:1092E4000120FFF7ABFE0B4C0B4EB44206D3FFF745
:1092F40099FF0028FBD101232B7070BD63685B7953
:109304001BB1236820469B6898471034EDE700BFE3
:10931400CDD40020042401001424010000212DE9EF
:10932400F0470846FFF78AFE044658B340F26768E0
:109334004FF0000908F0B4FE1B4B1C4A1B58136085
:1093440033B11B4B1B68092B02DD1A4805F0DCFB0B
:109354000025194FDFF85CA044B12046FFF708FE52
:10936400044618B94FF0FF384FF0FF39FFF75AFFA2
:10937400064628B9B5B942464B46504605F0E8FBC7
:109384003546E9E74FF0FF384FF0FF39D2E72B6855
:109394009B691BB100222846114698471035BD42EF
:1093A400F5D3E8E7054DFAE7080000000CCE0020ED
:1093B40014CE002074C700201424010004240100EA
:1093C40013B5184807F0D8FB174B1B7873B1EFF3AC
:1093D4001184202383F31288BFF36F8FFFF722FFDA
:1093E40084F31188BFF36F8F02B010BD0F4B1B685D
:1093F400002BF9D050B9002200230D48CDE90023F9
:109404004FF40042002306F067F9EDE70928EBD199
:10941400074808F066FD074802B0BDE8104005F0B3
:1094240073BB00BF14CE0020CDD400200CCE00208E
:1094340010CC002074C7002010B5064B04461B68EE
:1094440098472146A060044807F0E3F9BDE81040BE
:10945400FFF7B6BF84C5002010C70020044A054B9F
:109464009B1AB1EBD30F34BF52F831000020704780
:109474009423010004240100084B10B4C31A446867
:109484001B110133237143689A71012243681960E7
:1094940043685A7110BCFFF72FBE00BF04240100BB
:1094A4002DE9F04F8FB0C1F34A2804AF0D46914621
:1094B400B8607B600C0DB8F1000F63D000264FF04C
:1094C400040B4FF00A0A07F11403C7F80C80C7E92C
:1094D40007667E620193CDF808B0CDF800A007F1CD
:1094E4001C0332464846F968FFF734FAB0F5006FBA
:1094F40003461CD36C468AB0D9F8041004AB264842
:109504001A46C3E9050140F2FF71D9614FF40071B5
:109514001984224B42F8103F4FF41251334620482D
:10952400FFF7BEFFA5462C37BD46BDE8F08FC0F35C
:109534000A0804F11700184420F0070080083B6073
:10954400FFF754FE68F35325044690B13B6800F1DD
:109554001001C7E9083607F11403F961CDE900A346
:10956400CDF808B048460F4AF96807F11C03FFF725
:10957400F1F968F353252A4620467B68B96807F059
:109584002DFBD0E704F1170020F007008008FFF757
:109594002DFE0446EDE700BF5A2A01000400000135
:1095A400A4230100B50B01002DE9F04F87B0044658
:1095B400DDE9105ADDE91279934698460391BFB16B
:1095C4003B46524610210020CDF80090CDF814906F
:1095D400FEF7EEFFB0F5006F06460AD340F2FF73C4
:1095E4000221174A174807B0BDE8F04F07F04FBBF8
:1095F4003E4605F11700304420F007008008FFF7CD
:10960400F5FD04F007040BF0070BE40044EA8B14A7
:1096140044EA462444EA0554054640B13FB13B467A
:1096240052463146CDF800901030FEF7C1FF434654
:1096340022462846039907B0BDE8F04F07F0CEBA9A
:10964400992A0100A4230100406820B1034BC01AE9
:1096540040F3CF0070474FF0FF3070479423010070
:109664000EB403B503AB53F8042B0146044801932D
:1096740001F090F802B05DF804EB03B0704700BF4E
:10968400DD0C0100CA0605D48B064CBF0249034910
:10969400FFF7E6BF704700BF4F3501004E350100AC
:1096A4002DE9F04F89B09B46149B9DF84CA006937E
:1096B400159B04460593169B0D469046179E0493EE
:1096C400BAF1000F00F09D8006F48073079307F051
:1096D4006DFA06F00209024600283ED02046914960
:1096E400FFF7BEFF0746B9F1000F08D016F0440F8C
:1096F40035D12A4620468C49FFF7B2FF074406F0CD
:10970400010353B1894B204653F82A20884B8949D9
:10971400002A08BF1A46FFF7A3FF06F48073002B44
:1097240049D006F00803002B63D1B8F1000F66D0CE
:10973400424620468049FFF793FF0546069B3D4479
:10974400002B6DD1049B002B73D1F30700F1E4804F
:1097540031462046FFF796FFD8E00746C3E7774B2C
:1097640018680028CAD0764B4FF47A791B684FF4F6
:109774006161B5FBF3F5B5FBF0F300FB135509FB91
:1097840005F5B3FBF1F2B5FBF0FE4FF03C0C01FB29
:10979400123100FB1E55B1FBFCF309FB05F5B5FBCB
:1097A400F0F50CFB131120460091CDE901E5654964
:1097B400FFF756FFA2E706F00803EBB1624B204621
:1097C40053F82A206149FFF74BFF0546B8F1000F13
:1097D40005D0424620465849FFF742FF0544BBF1F5
:1097E400000FABD05A4620465949FFF739FF0544CC
:1097F400A4E74FF0000BE1E706F00805E6E745466D
:109804009CE7BBF1010F069B06D1002B64D1049B9E
:10981400002B7BD000250CE0002BF8D04D485CE0F9
:109824004D48069B22464D4906F0F5FD049B002B4E
:1098340068D0DFF82C81DFF82C91049F3146102F7B
:10984400204628BF10274FF0000BFFF71BFF5D4594
:1098540045DC059B494620461A78FFF701FF4FF087
:10986400010B1BF0070F03D141462046FFF7F8FE1A
:109874005F453BD9059B4946204613F80B20FFF76B
:10988400EFFE0BF1010BBBF1100FEAD14FF0000B0F
:1098940020463549FFF7E4FE5A46059B20469A5C6C
:1098A400A2F120015F2928BF2E223049FFF7D8FEFC
:1098B4000BF1010BBBF1100F1DD01BF0070F03D1EF
:1098C40041462046FFF7CCFE5F455A46E5D841465F
:1098D4002046FFF7C5FEEBE71F485546A1E7414682
:1098E4002046FFF7BDFE0BF1010BB0E720462049EF
:1098F400FFF7B6FEC5E7059B3B440593049BDB1BC2
:1099040004939AD1BAF1000F7FF41FAF204609B037
:10991400BDE8F04F07F0D3B92046054A0549FFF7E3
:109924009FFE15E7D62A0100DA2A01006C24010003
:10993400D12A010029290100FF2A010020CE00209C
:109944001CCE0020E32A010080240100032B010027
:10995400092B01000B0D0100DD0C010099A700008B
:10996400162B01000E2B0100182B01001A2B0100ED
:10997400142B010042F20F7373B58B4228BF0B46C0
:1099840005680446052168460D4A05F0E5FE0646CD
:10999400636828460B225B680A4907F082F963680A
:1099A4003246694628465B6807F07BF963681B22E8
:1099B40028465B68044907F074F902B070BD00BF23
:1099C4008D2C0100392B01001D2B010000210123E6
:1099D400064A904206D8064A01B901231360054B92
:1099E40018607047012140085B00F2E740420F0015
:1099F4001CCE002020CE0020F8B50D460446064FAC
:109A04004618B44201D12846F8BD14F8011BBB68BE
:109A140001485B689847F4E750210100014B03605B
:109A240000207047C824010008B5044806F04BFD27
:109A3400BDE80840024806F046BD00BF7F2B010088
:109A4400B42B01002DE9F04706460C4600AF00296F
:109A540036D0D1E90012E9468AB06D46A3684FF0CA
:109A6400050AA8461F48C5E90723C5E9050148F8C2
:109A740010AF002342464FF421511B48FFF710FD5D
:109A8400D4E90312CD466369AD461848C5E90723F6
:109A9400C5E90501C5F810A0002342464FF4215141
:109AA4001148FFF7FDFCCD46E3690121104A0E4839
:109AB40007F0EDF8A36901210E4A0B4807F0E7F817
:109AC400012E07D1EFF305830B4A31460648103BBC
:109AD40007F0DDF82146304604F0B2FDBD46BDE88E
:109AE400F08700BFE22B0100DC230100112C0100F0
:109AF400402C01004F2C01007D2C010030BFFFF7EA
:109B0400FDBF00BF2DE9F04105460B4EDFF82C8068
:109B1400324606EB0807CC1B2046094908F0A2FA96
:109B2400A01942460021083C08F0A9FA2C6707F165
:109B34000800BDE8F08100BF00000000080000003C
:109B440014240100074A936893F90E10002907DBD7
:109B5400526993421FBF044A536843F080535360D1
:109B6400704700BF68D4002000ED00E070B52A4CB7
:109B740006460D4629482A4907F04CF9A36ADB0634
:109B840047D52648274907F045F91120A36A1C0741
:109B940004D52248244907F03DF912201E4CA36A3B
:109BA400990712D521491D4807F034F9636BA26A5D
:109BB400120609D501211E4A184807F068F81EB19B
:109BC400A36A23F08003A3621320134CA36ADE0765
:109BD40004D51248174907F01DF91420A36A9C06FE
:109BE40004D50E48144907F015F915200A4B9A6A52
:109BF400D10658BF9A6A9A6A920642BF5A6A22F4F8
:109C040000525A629A6A42F0FF029A6200232B7051
:109C140070BD1020BAE700BF00ED00E0DC230100B6
:109C2400902C0100A62C0100D92C0100EC2C010081
:109C3400042D01001A2D0100392D010010B5244C0A
:109C44002449254807F0E6F8A36A99013ED522483D
:109C5400224907F0DFF81E20A36ADA0104D51E4862
:109C64001F4907F0D7F81F20194CA36ADB0204D55B
:109C740019481C4907F0CEF80220A36A1C0304D536
:109C84001548194907F0C6F82120114CA36A590355
:109C940004D51148154907F0BDF82220A36A9A0398
:109CA40004D50D48124907F0B5F82320084CA36ADF
:109CB400DB0304D508480F4907F0ACF82420A36A55
:109CC4006FEA03436FEA1343A36210BD1D20C3E789
:109CD40000ED00E0682D0100DC230100802D01006F
:109CE400932D0100AD2D0100D72D0100F52D0100AC
:109CF4001A2E0100342E010070B5294C06460D467B
:109D04002848294907F086F8A36AD9043CD5254890
:109D1400264907F07FF81720A36A1A0504D52148BD
:109D2400234907F077F818201D4CA36A9B0512D528
:109D34001C48204907F06EF8A36BA26A100409D5E9
:109D440001211D4A174806F0A2FF1EB1A36A23F49D
:109D54000043A3621920124CA36A590504D5114883
:109D6400164907F057F81A20A36ADA050ED50D48EC
:109D7400134907F04FF81B20094A936A43F47F43C1
:109D8400936200232B7070BD1620C5E7A36A9B0461
:109D9400F2D504480B4907F03DF81C20ECE700BF5E
:109DA40000ED00E0DC2301005F2E0100752E0100B0
:109DB400D92C0100862E01009F2E0100B42E010033
:109DC400CF2E0100392D01002DE9F0478AB0694BEF
:109DD4000446D3F804A089461646002500AFCAF30A
:109DE400080885F31188BFF36F8F02F07F43B3F146
:109DF4007F4F1ED1D3071CD4500603D4110708D4B7
:109E0400012508E05C495D4807F004F816F00406F3
:109E140000D04C4600250023FB71A8F10303092B55
:109E240000F28680DFE803F0077C7F7984848484F1
:109E340084822C46EFE75249504806F0EBFF00239A
:109E44004C4EFB71F36A9A0705D54E494B4806F010
:109E5400E1FF002329E0F36A002B01DA4A49F5E720
:109E6400F36A5B00F5D54949444806F0D3FF7369AA
:109E7400A26943F480737361BFF34F8FBFF36F8F95
:109E8400736932F8022C23F480737361BFF34F8F2C
:109E9400BFF36F8F4DF602739A4228D123680121D4
:109EA4003B4A364806F0F3FE2368FA79DAB907F13B
:109EB400080604F1200C324620686168083403C2A5
:109EC40064451646F7D17A6A002D4ED0C2F30801D4
:109ED40021B96FEA52226FEA42227A62184607F1E8
:109EE4000801FFF7AFFD2837BD46BDE8F087B36A28
:109EF400DBB22BB10120F91DFFF738FE0346D4E78E
:109F0400B36A13F47F4F04D00120F91DFFF7F4FE68
:109F1400F4E7B36AB3F5803F9BD3FFF78FFEEDE719
:109F24000020F91DE8E70020F91DEFE719498DE746
:109F3400194A6E461AF4F87F8AB0184B18BF1346B4
:109F44006A461749C2E90513A8F11003D3614FF417
:109F540000731384134B42F8103F00234FF4115144
:109F64000648FFF79DFAB54673E722F4FF7222F024
:109F74000102B2E700ED00E0152F0100DC2301002F
:109F8400382F01004F2F0100702F01007E2F010098
:109F94009D2F0100B92F0100FC2E0100E72E0100C6
:109FA400DD2F010004000001064B5A6942F0100243
:109FB4005A615A6942F480625A615A6922F008026D
:109FC4005A61704700ED00E0EFF30880EFF3098178
:109FD40001B57246FFF7F8FE01BD00BF002080F313
:109FE4001488BFF36F8F002080F30A8880F30B88F6
:109FF40007F0FEF900200E490860BFF34F8F0D48AB
:10A0040080F3088800F02CF8202080F311880A4897
:10A014004FF40061401880F30988EFF314800221A3
:10A02400084380F31488BFF36F8F00F00FF900002A
:10A0340094ED00E0B0E6002070D90020002318461B
:10A044000649D1F89020C2F30722934200DB7047FF
:10A05400C1F89830C1F8A0000133F6E700ED00E044
:10A0640010B572B6002484F31388FFF7E7FF234684
:10A074004FF0FF300C4A03F120010133102B42F85A
:10A084002100F8D100234FF0FF30074A03F16001AB
:10A094000133102B42F82100F8D162B6BFF34F8F81
:10A0A400BFF36F8F10BD00BF00E100E0084B9B6859
:10A0B40083420BD1EFF3058343B1064B5A6842F058
:10A0C40080525A605A6A22F400425A6207F07BBEF8
:10A0D40068D4002000ED00E06FF00A01084A93689C
:10A0E4009967084958674B6843F080534B600023D5
:10A0F40083F31188BFF36F8F9368986F704700BF25
:10A1040068D4002000ED00E0104A936883F87D00D5
:10A11400EFF31183202383F31288BFF36F8F4FF083
:10A124000061536920F0FF009360094A5160196F80
:10A13400084A1160002193F87D2010435A6F596733
:10A1440082F31188BFF36F8F704700BF68D400207B
:10A1540000ED00E048CE002010498A6882F87DE0D6
:10A164004FF030001044EFF3098C80E8F01F744680
:10A174007046FFF7C9FFA64608498A68864602F179
:10A18400300090E8F01F8CF3098802F1000004B558
:10A1940006F04AFEBDE804407047000068D4002081
:10A1A4001EF0040F0CBFEFF30880EFF30980816900
:10A1B40011F8021C0229FFD001B506F020FE01BDF2
:10A1C40040B2002807DB01234109034A00F01F00C5
:10A1D400834042F82130704700E100E040B200289B
:10A1E4000CDB01220649430900F01F0082402033A2
:10A1F40041F82320BFF34F8FBFF36F8F704700BF29
:10A2040000E100E0054B420953F82220012300F04D
:10A214001F0003FA00F01040704700BF00E100E0A7
:10A2240040B2002801F10101ACBF00F16040064BCF
:10A234004FEA4111C9B2ABBF00F5614000F00F0015
:10A2440080F800131954704714ED00E00B4A08B568
:10A254000B4B22F07F029A60BFF34F8FBFF36F8FD7
:10A26400D3F8882022F47002C3F8882004F0D4FACA
:10A2740005F068F800F04EF804F00EFB00800000D2
:10A2840000ED00E042F8203C009B0C4942F81C3CE5
:10A29400019B21F0010142F8183C029B42F8081C82
:10A2A40042F8143C4FF0807342F8043C00234367A7
:10A2B4004FF43C43203A0265C3677047258D000084
:10A2C40000B50D4B15469860026F0C4B0E461A6094
:10A2D400036E83F30B882C4686F309884FF0000045
:10A2E400074B984720464FF000014FF000024FF013
:10A2F4000003044C204700BF68D4002048CE00204F
:10A30400350E0100258D00001022014B1A617047A3
:10A3140000ED00E0002320210348C2180133412B43
:10A3240082F80013F9D1704700E100E008B5EFF3BB
:10A334000583064A103B02EBC30152F83300496817
:10A344008847BDE80840FFF7FDBB00BF8C21010032
:10A354001FB5094C094A23460121094800F012F9A6
:10A3640000230393074B0121E41A01A801930294EB
:10A3740000F012F904B010BD0000042080C50020D4
:10A38400C824010088C7002010B50C7A0B6804F0BB
:10A394001F0223F01F031A43CB68640923F01F0331
:10A3A400054943EA440343F00103C1F89800C1F8A6
:10A3B4009C20C1F8A03010BD00ED00E010B50A4BA0
:10A3C400D3F89030C3F30723013B984208D9012105
:10A3D4000346064A064806F05AFC6FF0150010BD05
:10A3E400FFF7D2FFFBE700BF00ED00E0F42F010010
:10A3F400CC2301002DE9F04F8946144606464FF060
:10A404000008514D85B0C84527DAD6F804A0BAF142
:10A41400000F44D0BAF11F0F17D91AF01F0F14D12F
:10A42400D6F800B01BF01F0F0FD1584606F023FDDD
:10A4340007460AEB0B00013806F01DFD874210D0D9
:10A444006FF01507414A3B4601E04346404A01216B
:10A45400404806F01CFC6FF01504204605B0BDE82A
:10A46400F08F17F1160FEDD0BC42EBDDC5F89870F4
:10A47400D5F89C10C5F89870D5F8A03021F01F01CC
:10A4840043F01F0BD6E900321A44994202F1FF3A15
:10A494001DD1D34507D13146F8B206F0F5FC08F1D9
:10A4A40001080C36AFE73146C5F89870D5F89C30F2
:10A4B40022F01F0203F01F031343C5F89C30E0B2DF
:10A4C40006F0E2FC10F1160FC5D0441CE7E7C5F80E
:10A4D4009870D5F8A020013B23F01F0302F01F025F
:10A4E4001343D3453146E0B2C5F8A030E8D006F0B6
:10A4F400CBFC10F1160FAED0C5F89870D5F89C209F
:10A504009DF808300BF1FF3B62F304038DF808302B
:10A51400D5F8A0309DF808205B0863F347128DF846
:10A524000820D6E900321344009323F01F035B4450
:10A53400A3EB0A03013023F01F036946C0B203935F
:10A54400FFF73CFFBEE700BF00ED00E03D30010037
:10A554001A300100CC2301000522044BC3F89420D7
:10A56400BFF34F8FBFF36F8F704700BF00ED00E064
:10A57400BFF35F8F0022024BC3F89420704700BFE3
:10A5840000ED00E010B5034C2278FFF733FF207094
:10A5940010BD00BFCFD400202DE9F74F294D8A46C6
:10A5A40006464FF00008AB46274FD0451BDAD6F8D5
:10A5B4000490B9F1000F3FD031680846019106F0CC
:10A5C4005AFC0199044609EB0100013806F053FCDA
:10A5D40084424FF014021D4B08D002FB08F36FF0C5
:10A5E40015024BF8032003B0BDE8F08F14F1160FE9
:10A5F4002C60F8D01978A142F5DD02FB08B0C7F849
:10A604009840C7F89840D7F89C4000F10801007BB7
:10A6140064F304000871D7F8A0000C79400860F3D3
:10A6240047140C71D7F89C1021F01F016960D7F80A
:10A63400A01021F01F01296108F1010814350C361E
:10A64400B3E700BF4CCE002000ED00E0CFD40020E3
:10A65400F0B54149414CD1F890302568C3F3072344
:10A664009D4287B075D80020FFF782FF3C4BC1F8AC
:10A67400C030854216D13B4C01A82570FFF7CEF9B6
:10A6840000250646384FAE4213D1002023783249C4
:10A69400D1F89020C2F30722934254DBFFF75CFF0A
:10A6A40000202FE0616801EB0011FFF76DFE01301F
:10A6B400DFE70199280101EB0513DA683A40B2F5A6
:10A6C400001F21D0B2F5800F2BD0B2F5801F38D1F6
:10A6D4005A689B680958013B22F01F00034401207B
:10A6E400844623F01F0340EA4C10CDE902218DF883
:10A6F400100002A920780593FFF760FE00281DDAF8
:10A704006FF0150007B0F0BD5A689B680958013B0B
:10A7140022F01F0003444FF0020C012023F01F031A
:10A72400E1E75A689B680958013B22F01F00034483
:10A734004FF0000C062023F01F03D4E723780133E5
:10A74400237001359FE7C1F89830C1F8A0000133A8
:10A754009EE74FF0FF30D5E700ED00E0D424010080
:10A76400AAFF4400CFD400200000F0FF08B5024B3C
:10A774001B689847002008BD60CE0020034B044AA4
:10A784001860937843F002039370704760CE002002
:10A7940090C50020F0B587B007460E461446002148
:10A7A400102268461D4607F06AFC02238DF8023029
:10A7B400054B2A4621466846CDE90476019305F007
:10A7C400D3F807B0F0BD00BFBF0E010008B50649BD
:10A7D400064821F00701C1F1005202F5802205F07C
:10A7E400C2FD002008BD00BFB7E8002064CE0020F1
:10A7F4000122024B0020C3F840257047009003401B
:10A8040020B1034B800143F001031847704700BF98
:10A8140030240100084B70B5C31A0D4607499B103C
:10A82400044659434022064806F05BFB2B4601468A
:10A834002046BDE87040184784CE0020B76DDBB6D3
:10A8440028210100402373B50B4C0093041B0B46D5
:10A854000D460A49A41061430646094A094806F010
:10A864006BFB011E05DA30462B4602B0BDE8704092
:10A87400184702B070BD00BF84CE0020B76DDBB6B0
:10A88400A50F01002821010010B5EFF31184202346
:10A8940083F31288BFF36F8F074A136823F0020112
:10A8A400DB07116002D4012006F0AFFD84F31188A8
:10A8B400BFF36F8F10BD00BFD4CE002070B500224F
:10A8C400012104460520FFF7ABFC0F4801F088FE88
:10A8D4000E4B984215D101F093FE26690C4930467F
:10A8E40006F0ADF800280BDB01253564246908491E
:10A8F40004F11C0006F0A3F8002801DB0020E56445
:10A9040070BD6FF00400FBE715AA00000000AD0B5A
:10A91400FC2401001FB500220123CDE902236B466C
:10A92400084ACDF800D0CDF804D006F032FB002858
:10A9340005DB4FF480420023684604F009F905B0B2
:10A944005DF804FBC30F01000C22104B014602FB0F
:10A954000033002030B4D3E90E529863EFF3118032
:10A96400202484F31288BFF36F8F1C6C04F0C0049E
:10A9740044F002041C6480F31188BFF36F8F1DB18F
:10A984002B4630BC0248184730BC704784CE0020A8
:10A994002821010010B4EFF31182202383F31288DD
:10A9A400BFF36F8F1748016841F002040460C807C1
:10A9B40007D482F31188BFF36F8F012010BC01F01C
:10A9C40033BE1149D1F80C04D1F80C14C907F0D5E1
:10A9D400EFF3118083F31288BFF36F8F0B490B6C75
:10A9E40003F0C00343F002030B6480F31188BFF348
:10A9F4006F8F82F31188BFF36F8F002010BCFFF7B5
:10AA0400A3BF00BFD4CE00200050004084CE00205D
:10AA140010B1012804D07047034B1B6C5B0701D1B4
:10AA2400FFF792BF704700BF84CE00202DE9F041AC
:10AA3400012207463449D1E8EF3FC1E8E02F00285E
:10AA4400F9D133B9314932484B60CB608A6006F0A2
:10AA540009F87B1E012B28D8012F06D12D4BD3F8E2
:10AA64001C3403F00303022B1FD007F0BAF8054689
:10AA7400E8B9294B1B78D3B102220646254BC3F80B
:10AA84000823244CDFF89480D4F81824D4F818341C
:10AA9400D20315D503F00303022B01D0012F0FD1EC
:10AAA4006DB386F31188BFF36F8FBDE8F081EFF3C8
:10AAB4001186202383F31288BFF36F8F0125E0E70B
:10AAC400C5B1304606F0C8F9D4F81835DBB2012B0D
:10AAD400DAD1D4F80421002AD6D00022C4F8042103
:10AAE400D4F804210222C4F818252022C8F88021B1
:10AAF400A360C9E70021212004F05CFBE4E7022203
:10AB0400044BC3F80423D0E780CE002070CE00208D
:10AB1400A0CE0020005000406ED6002000E100E0EE
:10AB240008B5074806F09FFF38B10648FFF726FE30
:10AB34000448FEF7EFF8002008BD6FF01200FBE7B1
:10AB4400502101004DAB00000A2838B50446074DDA
:10AB540004D1AB680D2128465B689847AB6803486D
:10AB64005B68E1B29847204638BD00BF5021010020
:10AB740038B545682B69B3B11035284602F088F919
:10AB8400044680B90146284602F046F9084B98422B
:10AB94000BD122462846074902F014F92246052122
:10ABA4003120FFF73DFB002038BD6FF00400FBE7C8
:10ABB4000000AD0BBDAB0000430970B507D10B4BD2
:10ABC400596821B101250C68094E854001B970BD51
:10ABD4008A682A4002D030464B6898471CB12368E3
:10ABE40021461C46F2E72346FAE700BFD8CE0020F0
:10ABF4003C2101002DE9F04340F206354668D006B9
:10AC040048BF0320337B02EA050558BFC2F3401056
:10AC140087B001F01F07B5F5837F144647EA431751
:10AC24008DF8030042D00FD8062D18D007D8B5B13F
:10AC3400022D3DD06FF0150007B0BDE8F083B5F5E7
:10AC4400807FF7D101250AE040F20222954231D0FB
:10AC5400B5F5407F30D0B5F5007FEBD10225012357
:10AC6400220303FA01F129D573689960326952BB52
:10AC740007F01F037F0973D13B4A84F4803102EB50
:10AC84008302D2F80032C1F30041C4F3404423F4F8
:10AC9400E16344EA410423F007031C4344EA8004CB
:10ACA40044EA0524C2F800420020C5E70725D6E798
:10ACB4000425D4E70525D2E70325D0E7630344BF81
:10ACC4007368D960D2E71036394630460DF1020276
:10ACD40002F086F814F4403F80460CD139463046E1
:10ACE40006F045FC214B9845DED130469DF8021014
:10ACF40002F0DCF8D8E74FF0000901AB39463046E2
:10AD040003AACDE90439CDE90199CDF80C9001F0FD
:10AD1400C5FE164B98428DD114F4003315D09DF81E
:10AD2400033084F48034C4F300448DF80E30394683
:10AD34004B46304603AA8DF80C508DF80D4001F0B7
:10AD4400A9FF0A4B9842CDD074E7CDE904333946C4
:10AD54000DF10303304603AA039301F09FFEF0E7CD
:10AD6400803352F82330FFDE002584400000AD0B11
:10AD7400F0B5406801F01F04057B87B044EA451430
:10AD84000569002D5FD0B2F5001F00F1100506D152
:10AD94002146284606F0EDFB002007B0F0BD002751
:10ADA400B2F5800F01AE0197776037D1B3F1007F20
:10ADB40014BF052304238DF804300023CDE9046374
:10ADC4000393836823FA01F111F0010118D1B2F160
:10ADD400A07F15D104F01F03620903F1800338D169
:10ADE4001D4A52F82330DB070AD40DF1030632461C
:10ADF4002146284601F0F4FF184B984219D00296D8
:10AE04002146284603AA01F049FE154B98421DD15C
:10AE140001222146284602F061F8BDE7B3F1C06F74
:10AE240005D0B3F1007F14BF01230223C3E703233A
:10AE3400C1E73146284602F045F8094B9842DED076
:10AE44006FF00B00A9E76FF08500A6E76FF015001F
:10AE5400A3E751F82330FFDE002584400400AD0B46
:10AE64000000AD0BB0B54468054600AF206806F09D
:10AE7400FAFD60B1E06830B90023A17FDAB29142F3
:10AE84001ED800201AE006F0EEFD0028F4D1236855
:10AE94006C4688B01B686A461749C2E905134FF42B
:10AEA40000739383154B42F8103F154800234FF469
:10AEB400E251FEF7F5FA6FF01200A546BD46B0BDAB
:10AEC400226AD25C0133032AD8D96C4688B06A4618
:10AED4002B680C49C2E905134FF400739383074BA5
:10AEE40042F8103F064800234FF4E251FEF7D8FA27
:10AEF4006FF01500A546E1E7A4300100030000014E
:10AF0400FC230100BC3001002DE9F04740F2FF169C
:10AF1400594FDFF868C1DFF868E100EB8101814235
:10AF240002D10020BDE8F087046814F4804FC4F314
:10AF3400C325C4F3080340F08C80240EB34208BF39
:10AF44004FF0FF337D5D192C00F28680DFE804F0BA
:10AF54000D13191C1F251C84848484366084848406
:10AF640084848484848463787B7EC2F80C355C1C7E
:10AF74005BD10430D3E7C2F814355C1CF9D000244B
:10AF84005CE0C2F80835F2E7C2F81035F5E75C1C5E
:10AF9400C2F80835EDD0002404E05C1CC2F80C357E
:10AFA400E7D001245FEA531859D14FF00109DFF8C3
:10AFB400CC8009FA03FAC8F80CA008E0C2F80835F6
:10AFC400002DDAD15C1CD4D000240625A146D0F88B
:10AFD40000A00AF40048B8F1000F1CBF4FF00009AC
:10AFE400012403F01F085B093FD10CEB8808D8F853
:10AFF4000032CAF3412A03EA0E0343EA8A0343EA0E
:10B00400052343EA090343EA4403C8F80032B0E7DE
:10B01400C2F80C35D4E7C2F86035B3F1FF3F0468D9
:10B02400A7D0C4F30044002CBBD05C091AD101247E
:10B03400DFF8488004FA03F9C8F80890A146C6E787
:10B04400C2F86435E9E7C2F86835E6E7C2F86C355A
:10B05400E3E76FF0150065E76FF0850062E7002312
:10B06400DB60FFDE00239B60FBE7002308F1800820
:10B0740053F82830F5E700BF1C3101000025844057
:10B08400F0F8FCFF2DE9F04104460D46476806F050
:10B09400A8FD4FF0200888B9264B1B7873B16426AD
:10B0A400606806F05AF8F0B9012006F0A3F9013EF1
:10B0B400F6D10021212004F07DF8F0E7EFF31186AA
:10B0C400314688F31288BFF36F8F606806F045F845
:10B0D400A8B986F31188BFF36F8FEFE786F3118861
:10B0E400BFF36F8FE5E7EFF31186314688F31288DB
:10B0F400BFF36F8F606806F030F80028EED0BB69AC
:10B1040000201D706368BA691B68C3F844250122D6
:10B11400C3F84825C3F82001D3F82041C3F85801E7
:10B12400D3F858019A6081F31188BFF36F8FBDE89B
:10B13400F08100BF6ED60020F7B50546002201213C
:10B144000820FFF76DF80820FFF73AF86A681369DA
:10B154001168C1F82435137D507D927D0343134358
:10B16400C1F86C356E68D6E9004313F0010350D082
:10B174002F6907F1080006F046F9334B984208D0CE
:10B1840032480121324A05F079FD6FF0040003B022
:10B19400F0BD387A04F10C0204F5907106F02CF934
:10B1A400387A012707FA00F001F0BCF90823C4F843
:10B1B4000035B369C4F844350023C4F84835A760A2
:10B1C400D4F85831002BFBD00021C4F800156B686B
:10B1D40001AADC68204605F093FF002805DB019BEB
:10B1E400226819791868FFF78FFE08216A681368C6
:10B1F400C3F80015117A51B9D269C3F83425012274
:10B20400C3F83825C3F81011D3F810111A600020C0
:10B21400BDE70822C4F80025B269C4F84425C4F87F
:10B2240048350123A360D4F82031002BFBD0002340
:10B23400C4F82031D4F820310123E3604FF4807343
:10B24400C4F80433BCE700BF0000AD0BF4230100D5
:10B25400243101002DE9F0474568D0F810800646F6
:10B264000021686B00AF05F0C3FF041E11DBA96B5E
:10B27400481C1AD005F13C0000F01EFB10F1130F1E
:10B2840004460AD10121334A334805F097FF6FF091
:10B2940012042046BD46BDE8F087411D05D10121B9
:10B2A4002E4A2D4805F08AFFF3E74FF00109EB6AB7
:10B2B4009847D8F80850D8E9023203EBC2039D42FC
:10B2C4000AD3404605F0D7FF73680021586B05F098
:10B2D4008FFF00EAE074DCE7286806F0C4FB03464D
:10B2E400B0B92A686C468AB0106829796A46D16177
:10B2F4004FF400711A4D11841A49C2E9055042F8FD
:10B30400101F4FF411511448FEF7CAF8A546BEE7C2
:10B3140028682979EB88D0F810C0DA07DCF80040F7
:10B3240054BF43F4B01383F4D01323F4801209FA06
:10B3340001FEDB07D0F808A04CBF4EEA040424EA5F
:10B344000E04CCF80040DAF800309847041EA0DB65
:10B354000835B0E75D310100EC23010088310100BC
:10B36400A5310100040000012DE9FF4105690646ED
:10B37400D0F80480A86C2B6D002835D1002B53D055
:10B38400B8F830406A6C9C4228BF1C46EF6CEB6CEA
:10B3940053B1296D41B107F06041B1F1005F03D0B1
:10B3A400082C28BF08246F6E00926A6CAC651AB131
:10B3B400AA6C002A18BF2246CDE901271BB12B6DC8
:10B3C400002B18BF2346002269464046039302F02F
:10B3D40025F8184B984229D06FF00401304604B088
:10B3E400BDE8F04105F069BF696CEF6C0A46B8F836
:10B3F4003040ABB1834228BF03469C4228BF1C4661
:10B404000029C4D001F06043B3F1005FBFD0082C21
:10B4140028BF0824286E224606F024FE2A6EB6E7CA
:10B42400844228BF0446EBE71946D7E704B0BDE8D9
:10B43400F08100BF0000AD0B10B502780346002A6E
:10B444005FD10C69A26D32B9606D6FF07301BDE814
:10B45400104005F032BFE06C40B1216D31B1DB68C2
:10B4640023B1834202D0616E06F0FCFDA36CA26D91
:10B4740033B19A4213D90121224A234805F09EFE92
:10B48400236DA26D33B19A4222D901211D4A1E486F
:10B4940005F094FE606DBDE81040FFF765BF9B1A90
:10B4A400A3647BB9636B04F1480208336363A36B41
:10B4B40004F13801013BA36304F1340005F085FE77
:10B4C4006064DDE7636C002BDAD013446364D7E770
:10B4D4009B1A23657BB9E36B04F150020833E363E1
:10B4E400236C04F14001013B236404F13C0005F0AA
:10B4F4006CFEE064CEE7E36C002BCBD01344E36432
:10B50400C8E710BDC9310100EC2301002DE9F04F5B
:10B514008DB000AFFB6043688846BB608B880546EE
:10B5240099049146046933D44FF0FF324FF0FF334E
:10B5340004F1100003F00CFBC4F80480D5F804B047
:10B54400D5F810A0DBF808303B609AF85D3023B1E1
:10B55400DAF80030984500F0CC80B8F8046016F4AE
:10B5640000631CD00121B14AB14805F027FE6FF0F9
:10B57400850623689B8813F4005304D1636004F1A7
:10B58400100003F0C1FA30463437BD46BDE8F08FF1
:10B59400A369002BC8D163689845C5D1CEE7F207EB
:10B5A40015D529686D4688B06A46A248C2E90501E6
:10B5B4004FF400719183A04942F8101F4FF4E251F7
:10B5C4009B48FDF76DFFAD466FF01506D1E73007D8
:10B5D40005D59A4A0121964805F0F0FDF4E7C6F333
:10B5E4004513082B01D0964AF4E7D8F800307B6065
:10B5F4007A68944B9A4201D8934AEBE707F1100C0E
:10B604000BF10C0EBEE80F00ACE80F009EE80F0033
:10B614008CE80F00D7E900239A4228BF1A468B4BC7
:10B624009A4211D28A4B9A424CD88A4B9A424BD8AE
:10B63400894B9A424AD8894B9A4249D88848894BBF
:10B644008949824288BF0B46B1077B6206F0040336
:10B6540040D5002B14BF0323022387F82830C6F3F8
:10B66400001387F82930DBF8003016F0020FD3F806
:10B674000825C6F340014FF001037C484FEA5216F7
:10B684002CD1002E40F012819340C3609AF85D30B3
:10B694002BB1584601F086FE00238AF85D302B4614
:10B6A400734A584607F1100101F048FE714A0346F7
:10B6B400904219D00121704A5D4805F0E8FA6FF014
:10B6C400040656E76D4BBFE76D4BBDE76D4BBBE71B
:10B6D4006D4BB9E7003B18BF0123BEE7002E40F0D5
:10B6E400E78093408360D1E70123CAF800808AF899
:10B6F4005D30012384F85C30BB68996B4A1C0AD026
:10B7040003F13C0000F008F9743004D102215F4ACF
:10B71400474805F053FDB9F1000F68D1C4F83490DF
:10B724000023A36304F1480204F1380104F1340056
:10B7340005F04BFDFB686064002B60D1E3630023DC
:10B74400236404F1500204F1400104F13C0005F0CB
:10B754003CFD002601213246E0642663204605F0C4
:10B764006AFD2846FFF700FE32463346A06B83424B
:10B774004DD100231946266CB1424FD1934238BFB4
:10B784001346A0464FF4FA5202FB03F658F8203B46
:10B794004FF4004C1B6840F2E730B6FBF3F600218F
:10B7A400C8364FF47A720023E6FB0C01FCF7C8FCA0
:10B7B40002460B46404603F0CBF90246002869D006
:10B7C4000121334A1A4805F0F9FC0026B868A66539
:10B7D40001F0E8FD6FF07301284684F85D6005F020
:10B7E4006CFD404603F0DAF96FF07306C1E6D9F850
:10B7F40000306363002B93D0D9F8043091E7FB68E1
:10B804001B68E363002B9AD0FB685B6898E7616B65
:10B8140001EBC301496801330A44A8E7E06B00EB7C
:10B82400C100406801310344A6E700BFE7310100CD
:10B83400EC23010001320100030000012332010066
:10B844004232010047E801007132010000127A001F
:10B85400FF083D007F841E003F420F001FA1070028
:10B864008FD0030048E8010090D0030000258440F5
:10B874003DB400000000AD0BA232010000093D0000
:10B8840080841E0040420F0020A10700C93201003D
:10B89400F3320100266B16F1740F96D0002E3FF49C
:10B8A40068AE0146286905F0C6FC62E6C960FFDEA1
:10B8B40000239B60FBE700BF0123F0B587B08DF840
:10B8C4000230022300248DF804306B4403930F46A6
:10B8D40001AB0DF10301049305460291059401F0B7
:10B8E400F1FA0C4B064698420FD13946284603AA72
:10B8F40001F0D4F8B0420BD028469DF8031001F0B3
:10B90400D5FA6FF0040007B0F0BD6FF01200FAE74B
:10B914002046F8E70000AD0B2DE9F0410D46064640
:10B9240005F029FE002207462946304601F0D6FAE2
:10B934006B0905F01F0429D1174B03EB8404D4F8D9
:10B944000022164B134043F00C03C4F8003205F0F8
:10B95400D1FC80463368DB597BB100273046294649
:10B9640005F007FED4F800220C4B3846134043F090
:10B974000403C4F80032BDE8F08105F0BBFCA0EB81
:10B9840008000628E6D96FF07307E7E70023803440
:10B9940053F82430FFDE00BF00258440F0F8FCFF9C
:10B9A4000123834070B5DC430B4AD2E8EF1F01EA60
:10B9B4000405C2E8E65F002EF7D14FF480328240DE
:10B9C4000648C0F80823BFF35F8FBFF36F8F0B42A5
:10B9D40014BF0120002070BDF4CE002000500140AF
:10B9E40070B40E4922F07F46D1E90034D01AC3184E
:10B9F40044F10004C1E90034A6F50013B3F5400F87
:10BA040009D2074B1B681A0A1B069C19054B42F105
:10BA14000005C3E9004570BC03F06EBD58CC00209E
:10BA2400F8CE002060CC0020D9B101230D4A834018
:10BA3400D2E8EFCF4CEA030CC2E8E1CF0029F7D1FA
:10BA44004FF48033084A8340C2F80433074BD3E8E9
:10BA5400AF3FC340DB0742BF4FF40012044BC3F8AF
:10BA640000217047F4CE002000500140F0CE0020A9
:10BA740000E100E00D4B1868010A0006BFF35F8F78
:10BA84000B4BD3F80435181841F10001B3F5801FAE
:10BA94000AD2084BD3E90023904271EB030303D28B
:10BAA40010F1807041F10001704700BFF8CE002012
:10BAB4000050014060CC00202DE9F04F85B01646BF
:10BAC4001F4604469DF840A0FFF76AFF0190FFF768
:10BAD400D1FFB04271EB070352D23B4B301A67EBF4
:10BAE4000101984271F100014DD2384B03EB04136C
:10BAF400D3E902239F4208BF964258D04FF48038BE
:10BB0400334908FA04F8204626F07F4BC1F84883ED
:10BB140005F0E4FB4FF00309584604F15005AD006D
:10BB2400ADB205F1804504F5A87305F5A835029377
:10BB3400029A20F07F4341F82230C1F84483D1F8BF
:10BB44000435244AC01A033820F07F4090422ED98D
:10BB5400286868B1D1F80435A3EB0B0020F07F40CE
:10BB6400B0F5000F039322D9204605F0B7FB039BE1
:10BB7400BAF1000F07D109EB030009F10109D7E776
:10BB8400BAF1000F09D06FF0150520460199FFF7AF
:10BB94004BFF284605B0BDE8F08F01230E4AA340B1
:10BBA400D2E8EF0F1843C2E8E10F0029F8D10749A2
:10BBB4000E982301C8500F9B01EB04120025C2E923
:10BBC40002675360E1E700BF0100800048CC002019
:10BBD40000500140FDFF7F00F0CE00207FB500251E
:10BBE4004FF0FF304FF0FF31194C1A4B0226C4F8C6
:10BBF4000833C4F84833184BC4F80855C3E90201A4
:10BC04004FF480334FF40012C4F80433134B012172
:10BC1400C4F804631520C3F880212A46FEF700FB0C
:10BC24001520FEF7CDFA01230D4AA36023601360AB
:10BC34000C4B0D4A009328460023CDE90155FFF72C
:10BC44003BFF3046FEF7F2FE284604B070BD00BF4D
:10BC54000050014003000F0048CC002000E100E048
:10BC6400F4CE0020E5B90000FFFF7F002DE9F74383
:10BC74002E4BD3F8042390070BD5D3F8042142B1FB
:10BC84000022C3F804212A4AD3F80431136801338B
:10BC94001360264AD2F80433D90326D5254BD3E8BA
:10BCA400EF1F21F00100C3E8E40F002CF7D1CB070C
:10BCB40002D4D2F84031C3B100251C4CC4F8405121
:10BCC400D4F84031FFF7D6FEEFF31182202383F33B
:10BCD4001288BFF36F8F184BD3E90267B042B941A2
:10BCE40006D282F31188BFF36F8F03B0BDE8F083EF
:10BCF4004FF0FF38D3E900104FF0FF391D60C3E95E
:10BD040002894FF48033C4F84833C4F84051D4F85E
:10BD1400403182F31188BFF36F8F0029E5D0009082
:10BD240032463B4628468847DFE700BF00500140C3
:10BD3400F8CE0020F0CE002048CC002030B5431CC3
:10BD4400124C85B005D08442A8BF0446012CB8BF6C
:10BD54000124FFF78FFE0E4B0C4DD3E90013401A5C
:10BD6400B0F5000F0FD22218AA4228BF2A4600209D
:10BD740052180849CDE90100009143F10003FFF78F
:10BD84009BFE05B030BD2A46F1E700BFFFFF7F00F0
:10BD940058CC0020E5B9000008B5FFF76BFE024B54
:10BDA4001B68C01A08BD00BF58CC0020F0B50F4B6B
:10BDB40001461A680E4B0B25002618461F46B8424A
:10BDC40001D3013D04D11846013A19605A60F0BD0F
:10BDD40004688C42FBD03CB14468141BA642BCBF2F
:10BDE400034626460830EAE70346ECE76CCF00201A
:10BDF40078CF00200020054BC3E90000044BD3E8B2
:10BE0400EF2FC3E8E10F0029F9D1704770CF00206C
:10BE14006CCF00202DE9F04F87B005460E4605F0A3
:10BE240015FC20B96FF06D0007B0BDE8F08F06F087
:10BE340005F833680446002B0F4604D103F038F9A3
:10BE44006FF00A00F0E7BCBF4FF0FF33336001220C
:10BE5400002101A805F0B9FEE8460595EFF3118B22
:10BE6400202383F31288BFF36F8F06F019F9DFF8EC
:10BE740028A1DFF828915AF80000FFF797FFD9F8B6
:10BE8400003042689A426ED10023454D00936B689E
:10BE9400002B6FD1C5E900888BF31188BFF36F8F36
:10BEA40033685A1C6BD04FF4004E40F2E730002147
:10BEB40023EAE37C4FF47A720023CCFB0E01FCF7F7
:10BEC4003FF902460B4601A802F042FEEFF3118B44
:10BED400202383F31288BFF36F8F00222B685BB19A
:10BEE400434556D10099002A4DD16A6829609A4287
:10BEF40000D169600023009306F0D2F85AF80000DC
:10BF0400FFF754FFD9F8003043608BF31188BFF377
:10BF14006F8F05F09BFB002884D035686B1C27D0FD
:10BF240005F08CFF4FF47A7EA0FB0E320EFB01214C
:10BF3400A4FB0E420EFB0722DB0BE40B43EA414356
:10BF440044EA42441B1B4FEAD1314FEAE57C61EBE2
:10BF5400D231ED1A6CEB010CBCF1000FB8BF002517
:10BF640035602DB96CE743608BF31188BFF36F8F95
:10BF7400002059E7C3F80080C5F804808CE74FF02F
:10BF8400FF3213469FE711606968994208BF6A60EF
:10BF9400B0E71A461B68A2E7080000006CCF002037
:10BFA40070CF0020024600B506F07AF8014B1A5013
:10BFB4005DF804FB0C00000030B404682CB10C4B99
:10BFC4009C4202D370339C4209D30A4B1C78062C42
:10BFD40009D8651C1D70064B03EB0413036000684D
:10BFE40030BC05F0F2BD6FF00B0030BC704700BFF1
:10BFF400FCCE002062D6002038B505460A4BD3E8B3
:10C00400EF1F0131C3E8E21F002AF8D1074B1C6877
:10C0140004B938BD6369AB4201D005B113B9201D21
:10C0240002F072FD2468F3E76CCF002070CF00208B
:10C03400014600220023014805F08EBDC8CF002030
:10C044000146014805F092BDC8CF002001460022F8
:10C054000023014805F080BDDCCF002001460148E3
:10C0640005F084BDDCCF002070B50546054C064EB6
:10C07400B44200D370BDD4E900312846984708344F
:10C08400F6E700BF5436010054360100014801F0C0
:10C0940033BE00BF6DC00000014610B5064801F074
:10C0A40031FE034630B1BDE810400121034A044883
:10C0B40004F0EDBD10BD00BF292901003A33010091
:10C0C400C423010008B5B0B90B4805F05FF90B486B
:10C0D40005F05CF9084805F059F9074805F056F9E8
:10C0E400054805F053F9044805F050F9BDE8084047
:10C0F400014805F04BB908BD50350100603301001B
:10C1040010B50749074805F04AF9044628B101214A
:10C114000346054A054804F0BAFD204610BD00BF99
:10C1240081C30000F0CF002086330100DC2301002E
:10C134002DE9F041DFF8D4810D46D8F8704000AF06
:10C14400072C00F008065BD0132C00F0A080052C0F
:10C1540040F0B980D8F854806D496E4805F01BF959
:10C1640018F4805F41D06C496A4805F014F917242B
:10C1740018F4006F04D06949664805F00CF91824D6
:10C1840018F4007F0ED06649624805F004F9654B47
:10C1940018F4004F9B6B04D00121634A5D4804F0FE
:10C1A40076FD192418F4806F04D06049594805F0CD
:10C1B400F2F81A2418F4807F19D05D49554805F027
:10C1C400EAF81B24EB69002E40F09B80C3F30802BD
:10C1D40022B96FEA53236FEA4323EB6129462046D1
:10C1E400FDF730FCBD46BDE8F0811624C0E718F425
:10C1F400005FE7D04F49474805F0CDF81C24E1E73C
:10C20400D8F85C4043484C4905F0C5F8600606D5AB
:10C21400D8F868300121494A3E4804F038FDE10766
:10C2240005D547493B4805F0B6F82624CAE7A207D6
:10C2340005D54449374805F0AEF82724C2E763071B
:10C2440005D54149334805F0A6F82824BAE7200764
:10C2540005D53E492F4805F09EF82924B2E7E106AA
:10C2640005D53B492B4805F096F82A24AAE7A206EF
:10C2740005D53849274805F08EF82B24A2E7230674
:10C284003DD53549234805F086F82C249AE7D8F89B
:10C294006C8032491F4805F07EF818F0020F03D075
:10C2A4002F491C4805F077F818F0010F03D02D49E9
:10C2B400184805F070F818F0040F83D02A4915487F
:10C2C40005F069F87EE7294A294BE8468AB00F2C25
:10C2D400C8BF13466A462749103CC2E905134FF408
:10C2E40000731384244BD46142F8103F00234FF4AD
:10C2F40011510848FDF7D4F80024C54662E7252407
:10C3040060E723F4FF7323F0010366E7F0CF002016
:10C314005F2E0100DC230100752E0100D92C0100E1
:10C32400862E010000ED00E09F2E0100B42E0100D6
:10C33400CF2E0100392D0100C0330100D933010093
:10C34400E9330100FF3301001D34010038340100DA
:10C35400553401006A34010084340100973401002B
:10C36400B1340100E13401000F350100FC2E01005D
:10C37400E72E0100DD2F01000400000100B5104B81
:10C3840089B05A6AD86C00929A6A20F0050001922A
:10C39400DA6A694602921A6B03925A6B04929A6B98
:10C3A4000592DA6B06921A6C1B6D07929B0748BFC5
:10C3B40040F00400FFF7BCFE09B05DF804FB00BFC9
:10C3C400F0CF00202DE9F0411F46164B044693F8A8
:10C3D40000800D461646A2B0B8F1000F15D168468C
:10C3E40004F01CFD3A4631462846289BA0470446E3
:10C3F400684604F014FDB8F1000F02D00A4802F0B8
:10C4040047FB204622B0BDE8F0814FF0FF324FF0E9
:10C41400FF33054802F0C4FA0028E0D06FF083042B
:10C42400EFE700BF6ED6002060C70020002300B5F0
:10C4340089B0CDE9063303AB049304230390059339
:10C44400A9B10B6806934B6807930223111E18BF0A
:10C4540001210848CDE9002140F2F53104AA00F099
:10C464000BF80028B8BF012009B05DF804FB0123D4
:10C47400ECE700BF0501004010B4B1F5004F029C89
:10C484000ED2042B0CD8042C0AD8240444EA0364E6
:10C49400134644EA0102014610BC0348FFF792BF69
:10C4A4006FF0800010BC7047217C000030B5046838
:10C4B400ACB1B4FA84F30122C3F11F03DBB29A4096
:10C4C40024EA0202D0E8EF5FA54204D1C0E8EC2FD1
:10C4D400BCF1000FF6D1EAD102480B7030BD02481E
:10C4E400FCE700BF0000AD0B0200AD0B10B5036804
:10C4F400CB40DB0710D401238B40026843EA0201DE
:10C50400D0E8EF4F944204D1C0E8EC1FBCF1000F17
:10C51400F6D1F2D1014810BD0148FCE70000AD0B93
:10C524000400AD0B014BC3F80405704700700140D3
:10C53400F7B5044618B1012822D003B0F0BD022299
:10C54400264B0646C3F808230122DA60C3F8040127
:10C55400D3F80431012342F21075204F8DF80730CF
:10C56400D4B1012CE9D1D7F80C3403F4803386BB61
:10C57400002BE2D0012004F03DFF013DF3D1DCE7C4
:10C584000022164B0DF10706C3F808035860C3F8E0
:10C594000021D3F80031DDE7D7F8183403F48033F1
:10C5A4003EB9002BC9D0012004F024FF013DF3D192
:10C5B400C3E7D7F8182402F003023270002BBCD072
:10C5C4009DF807000128B8D104F014FF013DC7D13C
:10C5D400B3E7D7F80C2402F00102EEE70050004064
:10C5E400044B1A7922B9012218601A710248704763
:10C5F4000248704764D000200000AD0B0C00AD0B66
:10C6040008B5074B1B6833B10520FDF7FBFD10B9D6
:10C614000520FDF7D5FD0122024BC3F8182508BDFE
:10C6240064D000200050004010B510B1012848D05B
:10C6340010BD294BD3F81814D3F81824C90324D5F2
:10C6440002F00303022B05D0012B02D00020FFF7D8
:10C654006FFF0123204A0220C2F8183508224FF444
:10C664008273002103F1804303F5A04319601C6821
:10C67400012402F1804202F5A0421460174A1268B4
:10C684001AB3154BC3F80403D2E7D3F81424D20722
:10C69400DFD5D3F81C2402F00302013A012AD5D8CD
:10C6A4000E4A12681AB10222C3F80423C0E7D3F871
:10C6B4000421002AFBD00022C3F80421D3F804315A
:10C6C400B6E700224FF48073CBE71A68002AFCD047
:10C6D40019601B68ACE700BF0050004064D0002024
:10C6E40010B5164BD3F8002152B10020C3F8000155
:10C6F400D3F800210122C3F80823114B1B68984783
:10C704000E4BD3F8042182B10022C3F80421D3F8DC
:10C714000421D3F81824D3F81824022102F00302C8
:10C72400012A03D1C3F818159A6010BDC3F8081381
:10C73400034B0120BDE810401B681847005000401F
:10C7440064D0002001460148FFF7B0BE08C60020AF
:10C75400036803F01F025B090260024818BF00204F
:10C76400704700BF0025844070B432240279184B0E
:10C77400624352FA81F2083233F81240E10524D5BB
:10C78400C4F3432124F4F85423F81240642400260B
:10C79400027904FB02340E3434F8025F15F4807F0E
:10C7A40003D0C5F34325A9420FD00136202EF3D17F
:10C7B40064240025624302EBC1029D50027904FB0C
:10C7C400023070BC5830FFF791BE70BC704700BF98
:10C7D4000CC6002032235843034B50FA81F1083130
:10C7E40033F81100400B70470CC600203223584325
:10C7F400054B50FA81F1083133F8110080F0020042
:10C80400C0F34000704700BF0CC6002032235843D9
:10C81400044B50FA81F1083133F81100C0F3401091
:10C82400704700BF0CC60020024611F0010004D07E
:10C8340003490B6A13600B6203B90020704700BF01
:10C8440000258440F0B5054600200126044607462D
:10C854008C420BD1114BD3F87C2132B10022C3F8A6
:10C864007C21D3F87C3140F00040F0BDE3B29B0062
:10C8740003F580729B0806FA03F31D420BD002F104
:10C88400804202F54432D2F800C0BCF1000F02D05D
:10C894001760126818430134DAE700BF0010034040
:10C8A4002DE9F3470546544B296DD3F80403C0B270
:10C8B40040F00040FFF7C6FF061E18DA0023684662
:10C8C400E96D00934FF00108FFF7AEFF95F85C3077
:10C8D400DA0758D4296D4FF00040FFF7B3FF6846DC
:10C8E400E96DFFF7A1FF0028F0D126F000460124EE
:10C8F400002E68D102B0BDE8F08794FAA4F4B4FA2B
:10C9040084F4E00804F1080335F8139004F00702F6
:10C914001DF8003008FA02F223EA02030DF8003091
:10C9240001A80194FFF714FF019B4FEA990180339A
:10C9340050F82370C9F3820A4B07D146C7F3014765
:10C9440025D552462846214604F0B9FD01A8019494
:10C95400FFF7FEFE019BFFB2803350F82330C3F390
:10C9640001439F4207D10021204604F099FD394636
:10C97400204604F095FD01A80194FFF7E9FE019B10
:10C9840008FA03F30362009C002CB6D1A2E7022F3D
:10C994000DD10321204604F083FD0AF00503012B89
:10C9A400E9D14A462146284604F089FDE3E70221FD
:10C9B400204604F075FDBAF1030FF2D0032FDAD14B
:10C9C400BAF1020FECE796FAA6F3B3FA83F304FA8A
:10C9D40003F29B0003F1804303F54433D3F81015AD
:10C9E40026EA0206D3F810252846C2F30142C1F311
:10C9F400042104F064FD7BE70010034032222DE99A
:10CA0400F3410379214F534353FA81F3083337F841
:10CA140013300546DB070C46CEB234D504F080FD56
:10CA240095F8048021464046FFF7F0FE60B12146A8
:10CA34004046FFF7CFFE2A6800B202EB80030022D3
:10CA4400C3F81025C3F8102528462146FFF78CFEAD
:10CA540032222B7901A802FB03660023083627F84B
:10CA640016300194FFF774FE019B00EB8300D0F8AD
:10CA74000022074B134043F00203C0F8003205487C
:10CA840002B0BDE8F0810448FAE700BF0CC60020FC
:10CA9400F0F8FCFF0000AD0B0400AD0B2DE9F043F2
:10CAA400D2F8009004460D46164685B0B9F1000F41
:10CAB40034D032220079DFF8D081424352FA81F235
:10CAC400083238F81230CFB29B0703D5FFF79EFE29
:10CAD40000283BD100230DF10F02CDE900338DF87E
:10CAE4000E308DF80F300DF10E014B46284604F040
:10CAF4008EFC3221237901FB0373083338F81320A9
:10CB040022F0020228F81320237901FB0377083767
:10CB140038F8173043F0010328F817307368002BF6
:10CB240043D04FF0320C22791F780CFB02F2D3F879
:10CB340004E052FA85F2544B083233F81200E9B299
:10CB440010F0020F04D0BEF1000F18D04F482FE0B0
:10CB540020F4604020F0200023F81200BEF1000F02
:10CB64000DD0032FF2D872685068226890F800E064
:10CB740002EB8E02FFB9C2F81075C2F810754FF0BF
:10CB8400320C22790CFB0212083233F8120020F026
:10CB94001C0023F8120022790CFB0211083133F82F
:10CBA400112042EA870223F81120B36863BB384896
:10CBB40005B0BDE8F083D2F8108528F00308C2F868
:10CBC4001085226802EB8E00D0F8102522F447323B
:10CBD40022F44072C0F810252A02D0F8108502F41D
:10CBE400F85242EA074242EA0802C0F810252279C4
:10CBF4000CFB0212083233F8120040EA4E3040F0C7
:10CC0400200023F81200BAE72946D3E9008720461A
:10CC1400FFF7AAFDB8F1000FC9D0642320791A4E9A
:10CC24004343F218F358984504D153689F4201D105
:10CC340000210CE0642303FB00600DF10F01583068
:10CC4400FFF734FC124B9842B2D19DF80F106422C6
:10CC54002379534303EBC10346F8038023795343F9
:10CC6400322203EBC10333445F602379534353FA05
:10CC740085F3083336F8132042EA412242F48072E5
:10CC840026F8132093E700BF0CC600200400AD0B68
:10CC94000000AD0B2DE9F04305460C461F4685B058
:10CCA4009AB306793046FFF7A1FD20B121463046FC
:10CCB400FFF7ACFD80BB32235E43DFF8FC9056FAED
:10CCC40084F6083639F816305FFA84F813F01C0F2E
:10CCD40002D05378012B1FD001238DF80F3000238D
:10CCE4002046CDE900230DF10F01931C013204F01D
:10CCF4008EFB32222B7902FB038808F1080839F8ED
:10CD0400183043F0030329F81830002F51D021467E
:10CD14002879FFF76BFD18B1284805B0BDE8F0830A
:10CD24003E782B68244903EB8603C3F81005C3F847
:10CD3400100532202B794FEA860C434353FA84F3CF
:10CD4400083331F813E0E2B22EF4604E2EF0200ED8
:10CD540021F813E097F801E0BEF1000F29D02B6809
:10CD6400BF789C44DCF810354FEA0E4E23F4981338
:10CD740023F4F853CCF81035230203F4F8530EF4DB
:10CD8400403E3F05DCF8108543EA0E0307F48017A4
:10CD94003B4343EA0803CCF810352B7900FB03220C
:10CDA400083231F8123043EA463343F0200321F8C5
:10CDB40012300348B1E700BF0CC600200400AD0BDD
:10CDC4000000AD0B30B564250479044B05FB043435
:10CDD400A160017905FB0133DA6030BD0CC6002087
:10CDE40038B505790C462846FFF710FD58B13223B3
:10CDF4005D43064B55FA84F4083433F81430044880
:10CE04005B0B137038BD0348FCE700BF0CC6002061
:10CE14000000AD0B0400AD0B2DE9F0410646077987
:10CE24006420184D00FB075898F8604044BB404606
:10CE340021464022103005F022F921463068D8F806
:10CE440050608E4212D10023C0F87C31D0F87C317E
:10CE540040F30730FDF7B4F9642303FB07550123BE
:10CE6400094885F86030AB65BDE8F081CBB29B0022
:10CE740003F580727C2B04BF845083580131E0E7B2
:10CE84000248F1E70CC600200000AD0B0C00AD0B0E
:10CE940064210279044B01FB023393F860000038EB
:10CEA40018BF0120704700BF0CC600206423542221
:10CEB400007913FB002302481844FFF717BB00BF97
:10CEC4000CC6002064235422007913FB002302487B
:10CED4001844FFF7EBBA00BF0CC6002073B5036813
:10CEE4000D46D3F8041306460029A4BF4FF00041B1
:10CEF400C3F80413047929462046FFF787FC00B3DE
:10CF040029462046FFF772FCD8B129462046FFF790
:10CF140061FC002501B23468890001F58073E55095
:10CF2400E35833680B44D3F8101541F00101C3F8FA
:10CF3400101522B1012332688340C2F8043302B0D1
:10CF440070BD32235C43104B54FA85F4083433F833
:10CF54001430C3F38203042B11D0052B11D001A884
:10CF64000195FFF7F5FB019A0369D34003F0010330
:10CF7400991C284602B0BDE8704004F091BA032120
:10CF8400F7E70221F5E700BF0CC600200148FFF7D0
:10CF940087BC00BF70C6002070B5084C0E462379CC
:10CFA400154643B92A20FDF70BF9012304482371E0
:10CFB4002660A56070BD0348FCE700BF6CD000206C
:10CFC4000000AD0B0C00AD0B002330B50D4A50F83A
:10CFD400234003F5A2710133082B42F82140F6D116
:10CFE4000023084A00F11C0103F5B27451F8045FF0
:10CFF4000133082B42F82450F6D1036CC2F80433F1
:10D0040030BD00BF00A0024038B50024154D2A20D1
:10D01400C5F81045C5F81445C5F81845C5F81C45AC
:10D02400C5F82045C5F82445C5F82845C5F82C455C
:10D03400C5F89045C5F89445C5F89845C5F89C458C
:10D04400C5F8A045C5F8A445C5F8A845C5F8AC453C
:10D05400FDF7C4F84FF0FF33C5F80833024B1C71D9
:10D0640038BD00BF00A002406CD000200123024A5A
:10D074008340C2F80433704700A002400123024AEF
:10D084008340C2F80833704700A00240F8B5012677
:10D0940000270B4B0B4DD3F80C4304B9F8BD94FA9D
:10D0A400A4F0B0FA80F006FA00F324EA0304064B75
:10D0B40082009F502B68002BEFD0A9689847ECE7BB
:10D0C40000A002406CD0002000A10240430904D11A
:10D0D4000123034A83409360704700239B60FFDE73
:10D0E400002584400C4B984213D00AD80B4B98422D
:10D0F4000FD00B4B98420CD00A4BC31A58425841DC
:10D104007047094B984204D0084B984201D0084B11
:10D11400F3E70120704700BF40420F0090D00300A6
:10D1240020A1070048E8010000093D0000127A0030
:10D1340080841E00431C14D000F01F0340090BD14F
:10D14400084A02EB8302D2F80012074B0B4043F06B
:10D154000203C2F8003270470022803352F82330B1
:10D16400FFDE704700258440F0F8FCFF430904D13A
:10D174000123034A8340D36070470023DB60FFDE52
:10D184000025844038B51446421C054616D00129B2
:10D1940002D1A3B1FFF79AFF05F01F036D0911D166
:10D1A4000B4A41EA840402EB8303D3F80002094AE0
:10D1B4000240144344EA4101C3F8001238BDFFF7AA
:10D1C400D5FFE9E70022803352F82330FFDE00BFA9
:10D1D40000258440F0F8FCFF2DE9F843504B4D69DD
:10D1E40006469D420C4690F8049000F0848077D85F
:10D1F4004C4B9D4200F082804B4B9D4200F081805D
:10D204004A4B9D420CBF4FF000754FF080452422DD
:10D21400DFF81C81E07E02FB0983997F60F3000143
:10D2240099773379217C02FB03839A7F61F341026E
:10D234009A77E77EEFB9237E3A46012B94BF002309
:10D24400012301212068FFF79DFF3B463A46012157
:10D254006068FFF797FF3B463946A27EA068FFF758
:10D2640091FF237C3A460121E06883F00103FFF734
:10D2740089FF242303FB0983E2681A62217C9A7FD5
:10D2840061F341029A77277FA07C217E637E326816
:10D2940047B9D4E900C7A468C2F808C5C2F80C7538
:10D2A400C2F81045003B18BF01230229C2F8C0058B
:10D2B400C2F824552BD003292CD0012901D143F0E5
:10D2C4000203C2F8543524223379534358F8033007
:10D2D4001BB33068BDE8F84340F30730FCF770BF78
:10D2E400144B9D4210D0144B9D420CBF4FF000458F
:10D2F4004FF080458BE74FF0805588E74FF080650D
:10D3040085E74FF0006582E74FF000557FE743F073
:10D314000403D6E743F00603D3E7BDE8F88300BF70
:10D3240040420F0090D0030020A1070048E801000C
:10D3340078D0002080841E0000127A002DE9F84382
:10D344000746242597F80480124C05FB08F504EBE6
:10D3540005091E4699F81C30C3B999B14869FFF70D
:10D36400C1FEA8B138466251C9F80460FFF734FF22
:10D37400242303FB0844002363770123064823770F
:10D38400BDE8F8836251C9F80460F1E70348F7E7A0
:10D394000348F5E778D000200000AD0B0C00AD0B7E
:10D3A4000400AD0B2DE9F041044606790068194DDF
:10D3B40040F30730FCF712FF24237343EB5853B1B7
:10D3C4002368154A06EBC601C3F80823206805EB59
:10D3D400810104F025F92368242404FB0654D3F8BE
:10D3E4000805D3F80C75D3F81085A37FDB070AD49E
:10D3F400FFF7A0FE4046FFF79DFE3846FFF79AFE72
:10D40400206AFFF797FE242303FB065500232B779E
:10D41400BDE8F08178D000205201080024232DE9D2
:10D42400F0430779534D7B439046EA180E46517FEB
:10D43400814685B0002940F09B80EB5823B118F059
:10D44400140F04BF01235377242496E80F0004FB30
:10D45400075404F10C0C8CE80F00206A421C04D021
:10D46400A37F9B071AD5FFF731FE3368D9F8004034
:10D4740023B103F06043B3F1005F06D1B36883B115
:10D4840003F06043B3F1005F0BD02423002203FBBD
:10D49400075339485A7705B0BDE8F083FFF766FEB5
:10D4A400E3E718F0010318BF0123C4F8503518F05E
:10D4B400020318BF0123EC46C4F8403596E80F0078
:10D4C4008CE80F00039BC4F84405C4F84815C4F85D
:10D4D4003425C4F838350023C4F81831D4F8183189
:10D4E4000723C4F8003524237B4318F0080F05EB09
:10D4F40003021DD10121E858216158B9D4F818312B
:10D50400002BFBD062464021204604F04BF8242334
:10D514007B43EA18EB5813BB106A461C13D107EB84
:10D52400C707204605EB870104F07AF81348B2E7F1
:10D53400EB58A3B9106A411CF8D0937F9A070BD516
:10D54400FFF714FEF2E7937F9B0702D5FFF70EFE69
:10D55400E5E7FFF7BBFDE2E7FFF7B8FDE6E74023A9
:10D5640018F0040F14BFC4F80833C4F80433DDE71B
:10D57400034890E778D000200A00AD0B0000AD0B03
:10D584000B00AD0B10B540210F4A104804F00AF807
:10D59400C8B10F4C206A421C04D0A37F9B070FD54F
:10D5A400FFF7E4FD637F1BB10949084804F038F82C
:10D5B400002323720748D4E90031BDE8104018471E
:10D5C400FFF784FDEEE710BD84D0002000B00040DA
:10D5D40078D0002080D0002007B5044BCDE90001AD
:10D5E4001B686846984703B05DF804FB9CD0002094
:10D5F400014B1870704700BF63D60020024B1878A7
:10D60400431E58425841704763D6002070B50368E2
:10D614000446033BDBB2052B03D8094A52F82350D6
:10D624002DB9A06858B1BDE8704000F011B804F0FD
:10D634005DF821682B46BDE87040090C184770BDA1
:10D644007C260100014B1B68184700BFD4C600208C
:10D65400014B1B69184700BFD4C60020014B9B68CF
:10D66400184700BFD4C60020014B1B68D868704718
:10D67400A0D00020002230B50B4B19680C689442EE
:10D684000FD001EBC2039D68A8420BD14FF00302F7
:10D694000433D3E8CF1F002903D1C3E8C02F0028E7
:10D6A400F7D130BD0132EAE7B8D000202DE9F041CE
:10D6B400002406460F462046DFF854803368A34210
:10D6C40001D8BDE8F08106EBC4056B68DBB2012B21
:10D6D40016D16A68B8F80030B3EB124F10D1022F9C
:10D6E400A8680FD1FFF792FF01206B6823F0FF03B6
:10D6F40043F003036B60B8F800300133A8F800303E
:10D704000134DBE70168090C03F0A2FFECE700BF7A
:10D7140098D4002010B5074C02216068FFF7C6FFBB
:10D724000028F9D101212068FFF7C0FF0028F3D1B8
:10D7340010BD00BFC0D0002070B5072860D8DFE856
:10D7440000F00B5F475F435F3C0400F00FFF0320D2
:10D75400BDE87040FEF750BC03202A4BD3F81446B2
:10D76400D3F81866284B1D781870EDB2FFF740FF08
:10D77400012D10D1254B264A9C4212D0230C1B04A8
:10D78400B3F1886F0DD0A4F58033203B022B0FD961
:10D794006FF0040313603146C4F30B00FFF71CFF62
:10D7A40000E014601B4B186803F0ACFD0020CFE7C9
:10D7B400194931F913301360F4E70024124B204661
:10D7C4001C70FFF715FFEDE7FFF7A4FF0220BFE78A
:10D7D4000D4B1A78012AD0B20ED1104A1168104AA2
:10D7E4008C6854604968116002221A70FFF700FFC8
:10D7F400084B186803F086FDFFF78CFF0120A7E7AC
:10D8040070BD00BF00A0024065D600200100500595
:10D81400BCD00020A8D0002094280100A4D000206F
:10D82400C0D000200A23F7B54FF47A750C4E0D4F83
:10D8340001933168386803F034FF044640B903F0BB
:10D844005FFD40B9012001A9FEF7E4FA6E30F0D182
:10D85400204603B0F0BD0198684303F04FFDE8E7AC
:10D86400ACD00020B4D00020054B1B782BB9054B5D
:10D874001968054B186803F014BF0020704700BFF7
:10D8840064D60020B0D00020B8D0002070B5164B6C
:10D8940042681B6822F0FF0242F00202C31A42608F
:10D8A4001248134A0168C3F38913D2E8DF4F651C99
:10D8B400C2E8D65F002EF8D101EBC3014A6892B2E8
:10D8C40042EA04424A600268032002EBC30253683E
:10D8D40023F0FF0343F00103536003F00FFD012223
:10D8E400044BDA6070BD00BFB0D00020B8D0002077
:10D8F4009AD4002000A002402DE9F04F95B03822C0
:10D904000021064603A804F0BAFB0223049308236B
:10D9140006932023089304230D93102340250F938B
:10D9240080230122CDE91153D523002157480B92BE
:10D934001393FEF741FB0546002840F0A3800246FE
:10D9440053493079FFF728FB03A8FFF73DFB346800
:10D954006268B2F59D6F40F092806169E3680B44A0
:10D96400E16903F59D630B44B3F5003F00F2878042
:10D974002068294604F083FB33681C68D3F81C90A4
:10D9840004F53A72019204F16007424A04F1A408D2
:10D9940004F1200BB9F1000F5BD1C2F800B00025EF
:10D9A4004FF0010A2570657084F802A0E5703368B1
:10D9B40040461B69636033685B69C4F814B0A360B4
:10D9C400354BC4F81890C3F80080344BE7601F60EF
:10D9D4000823C4F8108084F8A43088F8015088F82B
:10D9E400025088F8035084F860307D70BD70FD707B
:10D9F40003F03AFE384603F037FE294B04F53A7239
:10DA04001A60284B04F1E80231681A60264B274E4D
:10DA14001960274B2749C3F81046C3F81456264B00
:10DA2400264C1D80264B86F800A01D80254B0295B0
:10DA340025601D611B690293029B144B186803F057
:10DA440063FC98B103236FF073043370FFF7DCFABF
:10DA540011E09B6904F14009636433684846DB695B
:10DA6400C2F800B0236400F059FD98E72468002C44
:10DA7400ECD1154B1C70204615B0BDE8F08F6FF04B
:10DA84001504E3E76FF02D04F5E700BFA8D00020EC
:10DA94003DD70000A4D00020B8D00020B4D000208E
:10DAA400B0D00020ACD00020A0D0002065D600204B
:10DAB40000A00240F04902009AD40020BCD000200B
:10DAC40098D400200056004064D6002070B5164B50
:10DAD40042681B6822F0FF0242F00102C31A42604E
